:020000040800F2
:1000000000800120BD0300080D0400080D04000855
:100010000D0400080D0400080D0400080000000095
:100020000000000000000000000000000D040008B7
:1000300000000000000000000D0400088D02000810
:100040000D0400080D0400080D0400080D0400084C
:100050000D0400080D0400080D0400080D0400083C
:100060000D0400080D0400080D0400080D0400082C
:100070000D0400080D0400080D0400080D0400081C
:100080000D0400080D0400080D0400080D0400080C
:100090000D0400080D0400080D0400080D040008FC
:1000A0000D0400080D0400080D0400080D040008EC
:1000B0000D0400080D0400080D0400080D040008DC
:1000C0000D0400080D0400080D0400080D040008CC
:1000D0000D0400080D0400080D0400080D040008BC
:1000E0000D0400080D0400080D0400080D040008AC
:1000F0000D0400080D0400080D0400080D0400089C
:100100000D0400080D0400080D0400080D0400088B
:100110000D0400080D0400080D0400080D0400087B
:100120000D0400080D0400080D0400080D0400086B
:100130000D0400080D0400080D0400080D0400085B
:100140000D0400080D0400080D0400080D0400084B
:100150000D0400080D0400080D0400080D0400083B
:100160000D0400080D0400080D0400080D0400082B
:100170000D0400080D0400080D0400080000000034
:0C0180000D0400080D0400080D04000828
:10018C0010B5054C237833B9044B13B10448AFF3C5
:10019C0000800123237010BD080000200000000027
:1001AC001004000808B5034B1BB103490348AFF317
:1001BC00008008BD000000000C00002010040008A6
:1001CC0041F24C00C4F20200016841F005010160EB
:1001DC0040F20000C4F60000016821F4406141F4D3
:1001EC008061016040F60000C4F60000016821F057
:1001FC004061016040F61000C4F60000016842F254
:10020C0000021142F6D140F21400C4F6000001685D
:10021C0041F0200101604EF21400CEF2000041F6D4
:10022C000031C0F2B701013901604EF21800CEF274
:10023C0000000021016040F20000C2F20000002129
:10024C0001604EF21000CEF200000721016040F276
:10025C000000C2F2000001680129F8D10021016000
:10026C0040F21400C4F60000016821F02001016086
:10027C0040F61000C4F6000001681142F8D0B9E74E
:10028C004EF21000CEF200000021016040F200009E
:10029C00C2F2000001210160704700BF70B50D4D26
:1002AC000D4C641BA4100026A64209D10B4D0C4C1E
:1002BC0000F0A8F8641BA4100026A64205D170BD5E
:1002CC0055F8043B98470136EEE755F8043B984740
:1002DC000136F2E728040008280400082804000866
:1002EC003004000870477047024B13B1024800F00D
:1002FC0005B87047000000001503000800230146F4
:10030C001A46184600F014B838B5074D074C641B54
:10031C00A4101CB9BDE8384000F07AB8013C55F87F
:10032C0024309847F5E700BF300400083404000877
:10033C002DE9F047DFF874A00646DAF8000098467D
:10034C000F469146FFF7CEFF164B1C680CB9164CA6
:10035C001C606568DAF800001F2D05DDFFF7C3FF90
:10036C004FF0FF30BDE8F0879EB104EB8501012210
:10037C00C1F88890D4F88831AA401343C4F8883166
:10038C00022EC1F8088102BFD4F88C311343C4F893
:10039C008C316B1C0235636044F82570FFF7A3FFAA
:1003AC000020DFE7280000202C00002004000020A3
:1003BC000D488546AFF300800C480D490D4A0023CB
:1003CC0002E0D458C4500433C4188C42F9D30A4AFE
:1003DC000A4C002301E013600432A242FBD3FFF766
:1003EC005DFFFFF7EDFEFEE700800120000000201E
:1003FC00080000203404000808000020BC01002084
:10040C00FEE70000F8B500BFF8BC08BC9E4670477C
:0C041C00F8B500BFF8BC08BC9E46704755
:08042800F5020008B101000813
:040430008D01000832
:0804340000000000240000207C
:04000005080003BD2F
:00000001FF
